{
  "contractName": "Lottery",
  "abi": [
    {
      "constant": true,
      "inputs": [],
      "name": "timeToEnableCanceling",
      "outputs": [
        {
          "name": "",
          "type": "uint256"
        }
      ],
      "payable": false,
      "stateMutability": "view",
      "type": "function"
    },
    {
      "constant": false,
      "inputs": [
        {
          "name": "_lotteryId",
          "type": "address"
        }
      ],
      "name": "withdrawFundsAfterOneBet",
      "outputs": [],
      "payable": false,
      "stateMutability": "nonpayable",
      "type": "function"
    },
    {
      "constant": false,
      "inputs": [
        {
          "name": "_lotteryId",
          "type": "address"
        }
      ],
      "name": "joinLottery",
      "outputs": [],
      "payable": false,
      "stateMutability": "nonpayable",
      "type": "function"
    },
    {
      "constant": true,
      "inputs": [
        {
          "name": "_lotteryId",
          "type": "address"
        }
      ],
      "name": "getLotteryUsers",
      "outputs": [
        {
          "name": "evenUserAddress",
          "type": "address"
        },
        {
          "name": "evenHasPlacedBet",
          "type": "bool"
        },
        {
          "name": "evenHasRevealedBet",
          "type": "bool"
        },
        {
          "name": "evenNumberSaltedHash",
          "type": "bytes32"
        },
        {
          "name": "evenNumber",
          "type": "uint256"
        },
        {
          "name": "oddUserAddress",
          "type": "address"
        },
        {
          "name": "oddHasPlacedBet",
          "type": "bool"
        },
        {
          "name": "oddHasRevealedBet",
          "type": "bool"
        },
        {
          "name": "oddNumberSaltedHash",
          "type": "bytes32"
        },
        {
          "name": "oddNumber",
          "type": "uint256"
        }
      ],
      "payable": false,
      "stateMutability": "view",
      "type": "function"
    },
    {
      "constant": false,
      "inputs": [
        {
          "name": "_lotteryId",
          "type": "address"
        }
      ],
      "name": "cancelLotteryAfterOneBet",
      "outputs": [],
      "payable": false,
      "stateMutability": "nonpayable",
      "type": "function"
    },
    {
      "constant": false,
      "inputs": [
        {
          "name": "_lotteryId",
          "type": "address"
        }
      ],
      "name": "withdrawFundsAfterOneReveal",
      "outputs": [],
      "payable": false,
      "stateMutability": "nonpayable",
      "type": "function"
    },
    {
      "constant": false,
      "inputs": [
        {
          "name": "_betAmount",
          "type": "uint256"
        }
      ],
      "name": "createLottery",
      "outputs": [
        {
          "name": "lotteryId",
          "type": "address"
        }
      ],
      "payable": false,
      "stateMutability": "nonpayable",
      "type": "function"
    },
    {
      "constant": false,
      "inputs": [
        {
          "name": "_lotteryId",
          "type": "address"
        },
        {
          "name": "_salt",
          "type": "string"
        },
        {
          "name": "_userNumber",
          "type": "uint256"
        }
      ],
      "name": "revealBet",
      "outputs": [],
      "payable": false,
      "stateMutability": "nonpayable",
      "type": "function"
    },
    {
      "constant": true,
      "inputs": [
        {
          "name": "_lotteryId",
          "type": "address"
        }
      ],
      "name": "getLotteryData",
      "outputs": [
        {
          "name": "betAmount",
          "type": "uint256"
        },
        {
          "name": "firstBetTime",
          "type": "uint256"
        },
        {
          "name": "firstRevealTime",
          "type": "uint256"
        },
        {
          "name": "winnerAddress",
          "type": "address"
        }
      ],
      "payable": false,
      "stateMutability": "view",
      "type": "function"
    },
    {
      "constant": false,
      "inputs": [
        {
          "name": "_lotteryId",
          "type": "address"
        }
      ],
      "name": "cancelLotteryAfterOneReveal",
      "outputs": [],
      "payable": false,
      "stateMutability": "nonpayable",
      "type": "function"
    },
    {
      "constant": false,
      "inputs": [
        {
          "name": "_lotteryId",
          "type": "address"
        },
        {
          "name": "_userNumberSaltedHash",
          "type": "bytes32"
        }
      ],
      "name": "placeBet",
      "outputs": [],
      "payable": true,
      "stateMutability": "payable",
      "type": "function"
    },
    {
      "constant": false,
      "inputs": [
        {
          "name": "_lotteryId",
          "type": "address"
        }
      ],
      "name": "claimPrize",
      "outputs": [],
      "payable": false,
      "stateMutability": "nonpayable",
      "type": "function"
    },
    {
      "anonymous": false,
      "inputs": [
        {
          "indexed": false,
          "name": "lotteryId",
          "type": "address"
        },
        {
          "indexed": false,
          "name": "creator",
          "type": "address"
        },
        {
          "indexed": false,
          "name": "betAmount",
          "type": "uint256"
        }
      ],
      "name": "LotteryCreated",
      "type": "event"
    },
    {
      "anonymous": false,
      "inputs": [
        {
          "indexed": false,
          "name": "lotteryId",
          "type": "address"
        },
        {
          "indexed": false,
          "name": "user",
          "type": "address"
        }
      ],
      "name": "UserJoinedLottery",
      "type": "event"
    },
    {
      "anonymous": false,
      "inputs": [
        {
          "indexed": false,
          "name": "lotteryId",
          "type": "address"
        },
        {
          "indexed": false,
          "name": "user",
          "type": "address"
        }
      ],
      "name": "BetPlaced",
      "type": "event"
    },
    {
      "anonymous": false,
      "inputs": [
        {
          "indexed": false,
          "name": "lotteryId",
          "type": "address"
        }
      ],
      "name": "RevealState",
      "type": "event"
    },
    {
      "anonymous": false,
      "inputs": [
        {
          "indexed": false,
          "name": "lotteryId",
          "type": "address"
        },
        {
          "indexed": false,
          "name": "user",
          "type": "address"
        }
      ],
      "name": "BetRevealed",
      "type": "event"
    },
    {
      "anonymous": false,
      "inputs": [
        {
          "indexed": false,
          "name": "lotteryId",
          "type": "address"
        },
        {
          "indexed": false,
          "name": "user",
          "type": "address"
        }
      ],
      "name": "WinnerRevealed",
      "type": "event"
    }
  ],
  "bytecode": "0x606060405262015180600155341561001657600080fd5b611c0c806100256000396000f3006060604052600436106100ba576000357c0100000000000000000000000000000000000000000000000000000000900463ffffffff1680630d7bfe2b146100bf5780631c30d4cb146100e85780631ef539081461012157806328b67db21461015a57806346e6eb0a1461025e57806353a5e7d6146102975780638dd8c56d146102d05780639095cdf614610333578063bb14acd3146103b8578063c6dee09414610446578063c75bb81d1461047f578063e5e9b661146104ba575b600080fd5b34156100ca57600080fd5b6100d26104f3565b6040518082815260200191505060405180910390f35b34156100f357600080fd5b61011f600480803573ffffffffffffffffffffffffffffffffffffffff169060200190919050506104f9565b005b341561012c57600080fd5b610158600480803573ffffffffffffffffffffffffffffffffffffffff169060200190919050506105dd565b005b341561016557600080fd5b610191600480803573ffffffffffffffffffffffffffffffffffffffff16906020019091905050610706565b604051808b73ffffffffffffffffffffffffffffffffffffffff1673ffffffffffffffffffffffffffffffffffffffff1681526020018a1515151581526020018915151515815260200188600019166000191681526020018781526020018673ffffffffffffffffffffffffffffffffffffffff1673ffffffffffffffffffffffffffffffffffffffff168152602001851515151581526020018415151515815260200183600019166000191681526020018281526020019a505050505050505050505060405180910390f35b341561026957600080fd5b610295600480803573ffffffffffffffffffffffffffffffffffffffff1690602001909190505061083d565b005b34156102a257600080fd5b6102ce600480803573ffffffffffffffffffffffffffffffffffffffff16906020019091905050610904565b005b34156102db57600080fd5b6102f160048080359060200190919050506109e8565b604051808273ffffffffffffffffffffffffffffffffffffffff1673ffffffffffffffffffffffffffffffffffffffff16815260200191505060405180910390f35b341561033e57600080fd5b6103b6600480803573ffffffffffffffffffffffffffffffffffffffff1690602001909190803590602001908201803590602001908080601f01602080910402602001604051908101604052809392919081815260200183838082843782019150505050505091908035906020019091905050610d54565b005b34156103c357600080fd5b6103ef600480803573ffffffffffffffffffffffffffffffffffffffff16906020019091905050610fdc565b604051808581526020018481526020018381526020018273ffffffffffffffffffffffffffffffffffffffff1673ffffffffffffffffffffffffffffffffffffffff16815260200194505050505060405180910390f35b341561045157600080fd5b61047d600480803573ffffffffffffffffffffffffffffffffffffffff16906020019091905050611068565b005b6104b8600480803573ffffffffffffffffffffffffffffffffffffffff169060200190919080356000191690602001909190505061112f565b005b34156104c557600080fd5b6104f1600480803573ffffffffffffffffffffffffffffffffffffffff169060200190919050506113ff565b005b60015481565b600081600380600881111561050a57fe5b6000808473ffffffffffffffffffffffffffffffffffffffff1673ffffffffffffffffffffffffffffffffffffffff16815260200190815260200160002060070160009054906101000a900460ff16600881111561056457fe5b14151561057057600080fd5b6000808573ffffffffffffffffffffffffffffffffffffffff1673ffffffffffffffffffffffffffffffffffffffff16815260200190815260200160002092506105d76105bc8461159a565b60000160149054906101000a900460ff1684600601546116c5565b50505050565b60008160018060088111156105ee57fe5b6000808473ffffffffffffffffffffffffffffffffffffffff1673ffffffffffffffffffffffffffffffffffffffff16815260200190815260200160002060070160009054906101000a900460ff16600881111561064857fe5b14151561065457600080fd5b6000808573ffffffffffffffffffffffffffffffffffffffff1673ffffffffffffffffffffffffffffffffffffffff1681526020019081526020016000209250338360030160000160006101000a81548173ffffffffffffffffffffffffffffffffffffffff021916908373ffffffffffffffffffffffffffffffffffffffff16021790555060028360070160006101000a81548160ff021916908360088111156106fb57fe5b021790555050505050565b60008060008060008060008060008060008060008d73ffffffffffffffffffffffffffffffffffffffff1673ffffffffffffffffffffffffffffffffffffffff16815260200190815260200160002090508060000160000160009054906101000a900473ffffffffffffffffffffffffffffffffffffffff168160000160000160149054906101000a900460ff168260000160000160159054906101000a900460ff16836000016001015484600001600201548560030160000160009054906101000a900473ffffffffffffffffffffffffffffffffffffffff168660030160000160149054906101000a900460ff168760030160000160159054906101000a900460ff16886003016001015489600301600201549a509a509a509a509a509a509a509a509a509a50509193959799509193959799565b80600280600881111561084c57fe5b6000808473ffffffffffffffffffffffffffffffffffffffff1673ffffffffffffffffffffffffffffffffffffffff16815260200190815260200160002060070160009054906101000a900460ff1660088111156108a657fe5b1415156108b257600080fd5b6108ff836000808673ffffffffffffffffffffffffffffffffffffffff1673ffffffffffffffffffffffffffffffffffffffff168152602001908152602001600020600801546003611715565b505050565b600081600580600881111561091557fe5b6000808473ffffffffffffffffffffffffffffffffffffffff1673ffffffffffffffffffffffffffffffffffffffff16815260200190815260200160002060070160009054906101000a900460ff16600881111561096f57fe5b14151561097b57600080fd5b6000808573ffffffffffffffffffffffffffffffffffffffff1673ffffffffffffffffffffffffffffffffffffffff16815260200190815260200160002092506109e26109c78461159a565b60000160159054906101000a900460ff1684600601546116c5565b50505050565b60006109f2611ada565b6109fa611b27565b33925060001515610a0a84611794565b1515141515610a1857600080fd5b33826000019073ffffffffffffffffffffffffffffffffffffffff16908173ffffffffffffffffffffffffffffffffffffffff168152505081816000018190525083816040018181525050600181606001906008811115610a7557fe5b90816008811115610a8257fe5b81525050806000808573ffffffffffffffffffffffffffffffffffffffff1673ffffffffffffffffffffffffffffffffffffffff16815260200190815260200160002060008201518160000160008201518160000160006101000a81548173ffffffffffffffffffffffffffffffffffffffff021916908373ffffffffffffffffffffffffffffffffffffffff16021790555060208201518160000160146101000a81548160ff02191690831515021790555060408201518160000160156101000a81548160ff0219169083151502179055506060820151816001019060001916905560808201518160020155505060208201518160030160008201518160000160006101000a81548173ffffffffffffffffffffffffffffffffffffffff021916908373ffffffffffffffffffffffffffffffffffffffff16021790555060208201518160000160146101000a81548160ff02191690831515021790555060408201518160000160156101000a81548160ff021916908315150217905550606082015181600101906000191690556080820151816002015550506040820151816006015560608201518160070160006101000a81548160ff02191690836008811115610c4b57fe5b02179055506080820151816008015560a0820151816009015560c082015181600a0160006101000a81548173ffffffffffffffffffffffffffffffffffffffff021916908373ffffffffffffffffffffffffffffffffffffffff1602179055509050507fadb31808e993e3fdb94e6cb53cd5613030fbcaf5d5491b9a181a3d495995135b833386604051808473ffffffffffffffffffffffffffffffffffffffff1673ffffffffffffffffffffffffffffffffffffffff1681526020018373ffffffffffffffffffffffffffffffffffffffff1673ffffffffffffffffffffffffffffffffffffffff168152602001828152602001935050505060405180910390a15050919050565b6000806000856004806008811115610d6857fe5b6000808473ffffffffffffffffffffffffffffffffffffffff1673ffffffffffffffffffffffffffffffffffffffff16815260200190815260200160002060070160009054906101000a900460ff166008811115610dc257fe5b141515610dce57600080fd5b6000808973ffffffffffffffffffffffffffffffffffffffff1673ffffffffffffffffffffffffffffffffffffffff1681526020019081526020016000209450610e178561159a565b935086866040518083805190602001908083835b602083101515610e505780518252602082019150602081019050602083039250610e2b565b6001836020036101000a03801982511681845116808217855250505050505090500182815260200192505050604051809103902092508360010154600019168360001916141515610ea057600080fd5b85846002018190555060018460000160156101000a81548160ff0219169083151502179055507fa753d8f570428c9fb9dcb555f4083a3428a49d8d4303a8ef5fb1070c83adc65b8833604051808373ffffffffffffffffffffffffffffffffffffffff1673ffffffffffffffffffffffffffffffffffffffff1681526020018273ffffffffffffffffffffffffffffffffffffffff1673ffffffffffffffffffffffffffffffffffffffff1681526020019250505060405180910390a18460030160000160159054906101000a900460ff168015610f8f57508460000160000160159054906101000a900460ff165b15610fc85760068560070160006101000a81548160ff02191690836008811115610fb557fe5b0217905550610fc388611875565b610fd2565b4285600901819055505b5050505050505050565b60008060008060008060008773ffffffffffffffffffffffffffffffffffffffff1673ffffffffffffffffffffffffffffffffffffffff168152602001908152602001600020905080600601548160080154826009015483600a0160009054906101000a900473ffffffffffffffffffffffffffffffffffffffff169450945094509450509193509193565b80600480600881111561107757fe5b6000808473ffffffffffffffffffffffffffffffffffffffff1673ffffffffffffffffffffffffffffffffffffffff16815260200190815260200160002060070160009054906101000a900460ff1660088111156110d157fe5b1415156110dd57600080fd5b61112a836000808673ffffffffffffffffffffffffffffffffffffffff1673ffffffffffffffffffffffffffffffffffffffff168152602001908152602001600020600901546005611715565b505050565b600080836000808273ffffffffffffffffffffffffffffffffffffffff1673ffffffffffffffffffffffffffffffffffffffff168152602001908152602001600020600601543414151561118257600080fd5b84600280600881111561119157fe5b6000808473ffffffffffffffffffffffffffffffffffffffff1673ffffffffffffffffffffffffffffffffffffffff16815260200190815260200160002060070160009054906101000a900460ff1660088111156111eb57fe5b1415156111f757600080fd5b6000808873ffffffffffffffffffffffffffffffffffffffff1673ffffffffffffffffffffffffffffffffffffffff16815260200190815260200160002094506112408561159a565b9350600015158460000160149054906101000a900460ff16151514151561126657600080fd5b60018460000160146101000a81548160ff021916908315150217905550858460010181600019169055507f49110e93c600fbc20f5fe19021ec7af6c51e2ba07150652252d8b2db7c8fb3d68733604051808373ffffffffffffffffffffffffffffffffffffffff1673ffffffffffffffffffffffffffffffffffffffff1681526020018273ffffffffffffffffffffffffffffffffffffffff1673ffffffffffffffffffffffffffffffffffffffff1681526020019250505060405180910390a18460030160000160149054906101000a900460ff16801561135957508460000160000160149054906101000a900460ff165b156113ec5760048560070160006101000a81548160ff0219169083600881111561137f57fe5b02179055507f9fac817c27de0e0d22c728c165f9717b4b5c4db811a90e00bdd44ec8bd6ea6c487604051808273ffffffffffffffffffffffffffffffffffffffff1673ffffffffffffffffffffffffffffffffffffffff16815260200191505060405180910390a16113f6565b4285600801819055505b50505050505050565b806000808273ffffffffffffffffffffffffffffffffffffffff1673ffffffffffffffffffffffffffffffffffffffff168152602001908152602001600020600a0160009054906101000a900473ffffffffffffffffffffffffffffffffffffffff1673ffffffffffffffffffffffffffffffffffffffff163373ffffffffffffffffffffffffffffffffffffffff1614151561149b57600080fd5b8160078060088111156114aa57fe5b6000808473ffffffffffffffffffffffffffffffffffffffff1673ffffffffffffffffffffffffffffffffffffffff16815260200190815260200160002060070160009054906101000a900460ff16600881111561150457fe5b14151561151057600080fd5b3373ffffffffffffffffffffffffffffffffffffffff166108fc6000808773ffffffffffffffffffffffffffffffffffffffff1673ffffffffffffffffffffffffffffffffffffffff168152602001908152602001600020600601546002029081150290604051600060405180830381858888f19350505050151561159457600080fd5b50505050565b60008160000160000160009054906101000a900473ffffffffffffffffffffffffffffffffffffffff1673ffffffffffffffffffffffffffffffffffffffff163373ffffffffffffffffffffffffffffffffffffffff1614156115fe578160000190505b8160030160000160009054906101000a900473ffffffffffffffffffffffffffffffffffffffff1673ffffffffffffffffffffffffffffffffffffffff163373ffffffffffffffffffffffffffffffffffffffff161415611660578160030190505b600073ffffffffffffffffffffffffffffffffffffffff168160000160009054906101000a900473ffffffffffffffffffffffffffffffffffffffff1673ffffffffffffffffffffffffffffffffffffffff16141515156116c057600080fd5b919050565b8115156116d157600080fd5b3373ffffffffffffffffffffffffffffffffffffffff166108fc829081150290604051600060405180830381858888f19350505050151561171157600080fd5b5050565b60008060008573ffffffffffffffffffffffffffffffffffffffff1673ffffffffffffffffffffffffffffffffffffffff168152602001908152602001600020905042600154840110151561176957600080fd5b818160070160006101000a81548160ff0219169083600881111561178957fe5b021790555050505050565b60008060088111156117a257fe5b6000808473ffffffffffffffffffffffffffffffffffffffff1673ffffffffffffffffffffffffffffffffffffffff16815260200190815260200160002060070160009054906101000a900460ff1660088111156117fc57fe5b1415801561186e575060088081111561181157fe5b6000808473ffffffffffffffffffffffffffffffffffffffff1673ffffffffffffffffffffffffffffffffffffffff16815260200190815260200160002060070160009054906101000a900460ff16600881111561186b57fe5b14155b9050919050565b600080600083600680600881111561188957fe5b6000808473ffffffffffffffffffffffffffffffffffffffff1673ffffffffffffffffffffffffffffffffffffffff16815260200190815260200160002060070160009054906101000a900460ff1660088111156118e357fe5b1415156118ef57600080fd5b6000808773ffffffffffffffffffffffffffffffffffffffff1673ffffffffffffffffffffffffffffffffffffffff168152602001908152602001600020945084600001600201548560030160020154019350600060028581151561195057fe5b0614925082611986578460030160000160009054906101000a900473ffffffffffffffffffffffffffffffffffffffff166119af565b8460000160000160009054906101000a900473ffffffffffffffffffffffffffffffffffffffff165b85600a0160006101000a81548173ffffffffffffffffffffffffffffffffffffffff021916908373ffffffffffffffffffffffffffffffffffffffff1602179055507fa23366c830245b80e53f672d61cb8abb2eb5c7a5535652fd5364ce94c34d39378686600a0160009054906101000a900473ffffffffffffffffffffffffffffffffffffffff16604051808373ffffffffffffffffffffffffffffffffffffffff1673ffffffffffffffffffffffffffffffffffffffff1681526020018273ffffffffffffffffffffffffffffffffffffffff1673ffffffffffffffffffffffffffffffffffffffff1681526020019250505060405180910390a160078560070160006101000a81548160ff02191690836008811115611acd57fe5b0217905550505050505050565b60a060405190810160405280600073ffffffffffffffffffffffffffffffffffffffff16815260200160001515815260200160001515815260200160008019168152602001600081525090565b6101e060405190810160405280611b3c611b93565b8152602001611b49611b93565b81526020016000815260200160006008811115611b6257fe5b81526020016000815260200160008152602001600073ffffffffffffffffffffffffffffffffffffffff1681525090565b60a060405190810160405280600073ffffffffffffffffffffffffffffffffffffffff168152602001600015158152602001600015158152602001600080191681526020016000815250905600a165627a7a7230582000d6c9dc45d857d8e25432284b80061467b40ce475f7bda390ad998242e5cd090029",
  "source": "pragma solidity ^0.4.18;\n\ncontract Lottery {\n    struct User {\n        address userAddress;\n        bool hasPlacedBet;\n        bool hasRevealedBet;\n        bytes32 numberSaltedHash;\n        uint number;\n    }\n\n    enum State {\n        UNINTIALIZED,\n        LOTTERY_CREATED,\n        PLACING_BETS,\n        WITHDRAWING_FUNDS_AFTER_ONE_BET,\n        REVEALING_BETS,\n        WITHDRAWING_FUNDS_AFTER_ONE_REVEAL,\n        REVEALING_WINNER,\n        CLAIMING_PRIZE,\n        LOTTERY_ENDED\n    }\n\n    struct LotteryData {\n        User evenUser;\n        User oddUser;\n        uint betAmount;\n        State state;\n        uint firstBetTime;\n        uint firstRevealTime;\n        address winnerAddress;\n    }\n\n    mapping(address => LotteryData) lotteries;\n    uint public timeToEnableCanceling = 24 hours;\n\n\n    event LotteryCreated(address lotteryId, address creator, uint betAmount);\n    event UserJoinedLottery(address lotteryId, address user);\n    event BetPlaced(address lotteryId, address user);\n    event RevealState(address lotteryId);\n    event BetRevealed(address lotteryId, address user);\n    event WinnerRevealed(address lotteryId, address user);\n\n    function createLottery(uint _betAmount) public returns (address lotteryId){\n        lotteryId = msg.sender;\n\n        require(isLotteryValid(lotteryId) == false);\n\n        User memory creator;\n        creator.userAddress = msg.sender;\n\n        LotteryData memory lottery;\n        lottery.evenUser = creator;\n        lottery.betAmount = _betAmount;\n        lottery.state = State.LOTTERY_CREATED;\n\n        lotteries[lotteryId] = lottery;\n\n        LotteryCreated(lotteryId, msg.sender, _betAmount);\n    }\n\n    function getLotteryData(address _lotteryId) public view returns (\n      uint betAmount,\n      uint firstBetTime,\n      uint firstRevealTime,\n      address winnerAddress\n      ) {\n      LotteryData storage l = lotteries[_lotteryId];\n      return (\n        l.betAmount,\n        l.firstBetTime,\n        l.firstRevealTime,\n        l.winnerAddress\n        );\n    }\n\n    function getLotteryUsers(address _lotteryId) public view returns (\n        address evenUserAddress,\n        bool evenHasPlacedBet,\n        bool evenHasRevealedBet,\n        bytes32 evenNumberSaltedHash,\n        uint evenNumber,\n        address oddUserAddress,\n        bool oddHasPlacedBet,\n        bool oddHasRevealedBet,\n        bytes32 oddNumberSaltedHash,\n        uint oddNumber\n      ) {\n        LotteryData storage l = lotteries[_lotteryId];\n        return (\n          l.evenUser.userAddress,\n          l.evenUser.hasPlacedBet,\n          l.evenUser.hasRevealedBet,\n          l.evenUser.numberSaltedHash,\n          l.evenUser.number,\n          l.oddUser.userAddress,\n          l.oddUser.hasPlacedBet,\n          l.oddUser.hasRevealedBet,\n          l.oddUser.numberSaltedHash,\n          l.oddUser.number\n          );\n      }\n\n    function joinLottery(address _lotteryId) public isValidState(_lotteryId, State.LOTTERY_CREATED) {\n        LotteryData storage lottery = lotteries[_lotteryId];\n        lottery.oddUser.userAddress = msg.sender;\n        lottery.state = State.PLACING_BETS;\n    }\n\n    function isLotteryValid(address _lotteryId) private view returns (bool){\n        return lotteries[_lotteryId].state != State.UNINTIALIZED && lotteries[_lotteryId].state != State.LOTTERY_ENDED;\n    }\n\n    function getValidUser(LotteryData storage _lottery) private view returns (User storage validUser) {\n        if(msg.sender == _lottery.evenUser.userAddress) {\n            validUser = _lottery.evenUser;\n        }\n\n        if(msg.sender == _lottery.oddUser.userAddress) {\n            validUser = _lottery.oddUser;\n        }\n\n        require(validUser.userAddress != address(0));\n    }\n\n    modifier validAmount(address _lotteryId) {\n        require(msg.value == lotteries[_lotteryId].betAmount);\n        _;\n    }\n\n    modifier isValidState(address _lotteryId, State _state) {\n        require(lotteries[_lotteryId].state == _state);\n        _;\n    }\n\n    function placeBet(address _lotteryId, bytes32 _userNumberSaltedHash) public payable validAmount(_lotteryId) isValidState(_lotteryId, State.PLACING_BETS) {\n        LotteryData storage lottery = lotteries[_lotteryId];\n        User storage validUser = getValidUser(lottery);\n\n        require(validUser.hasPlacedBet == false);\n\n        validUser.hasPlacedBet = true;\n        validUser.numberSaltedHash = _userNumberSaltedHash;\n\n        BetPlaced(_lotteryId, msg.sender);\n\n        if(lottery.oddUser.hasPlacedBet && lottery.evenUser.hasPlacedBet) {\n            lottery.state = State.REVEALING_BETS;\n            RevealState(_lotteryId);\n            return;\n        }\n\n        lottery.firstBetTime = now;\n    }\n\n\n    function revealBet(address _lotteryId, string _salt, uint _userNumber) public isValidState(_lotteryId, State.REVEALING_BETS) {\n        LotteryData storage lottery = lotteries[_lotteryId];\n        User storage validUser = getValidUser(lottery);\n\n        bytes32 saltedHashedRevealedNumber = keccak256(_salt, _userNumber);\n\n        require(saltedHashedRevealedNumber == validUser.numberSaltedHash);\n\n        validUser.number = _userNumber;\n        validUser.hasRevealedBet = true;\n\n        BetRevealed(_lotteryId, msg.sender);\n\n        if(lottery.oddUser.hasRevealedBet && lottery.evenUser.hasRevealedBet) {\n            lottery.state = State.REVEALING_WINNER;\n            revealWinner(_lotteryId);\n            return;\n        }\n\n        lottery.firstRevealTime = now;\n    }\n\n    function revealWinner(address _lotteryId) private isValidState(_lotteryId, State.REVEALING_WINNER) {\n        LotteryData storage lottery = lotteries[_lotteryId];\n\n        uint sum = lottery.oddUser.number + lottery.evenUser.number;\n        bool isSumEven = sum % 2 == 0;\n\n        lottery.winnerAddress = isSumEven ? lottery.evenUser.userAddress : lottery.oddUser.userAddress;\n        WinnerRevealed(_lotteryId, lottery.winnerAddress);\n\n        lottery.state = State.CLAIMING_PRIZE;\n    }\n\n    modifier isWinner(address _lotteryId) {\n        require(msg.sender == lotteries[_lotteryId].winnerAddress);\n        _;\n    }\n\n    function claimPrize(address _lotteryId) public isWinner(_lotteryId) isValidState(_lotteryId, State.CLAIMING_PRIZE) {\n        msg.sender.transfer(2 * lotteries[_lotteryId].betAmount);\n    }\n\n    function cancelLottery(address _lotteryId, uint startingTime, State newState) private {\n        LotteryData storage lottery = lotteries[_lotteryId];\n\n        require(startingTime + timeToEnableCanceling < now);\n\n        lottery.state = newState;\n    }\n\n    function cancelLotteryAfterOneBet(address _lotteryId) public isValidState(_lotteryId, State.PLACING_BETS) {\n        cancelLottery(_lotteryId, lotteries[_lotteryId].firstBetTime, State.WITHDRAWING_FUNDS_AFTER_ONE_BET);\n    }\n\n    function cancelLotteryAfterOneReveal(address _lotteryId) public isValidState(_lotteryId, State.REVEALING_BETS) {\n        cancelLottery(_lotteryId, lotteries[_lotteryId].firstRevealTime, State.WITHDRAWING_FUNDS_AFTER_ONE_REVEAL);\n    }\n\n    function withdrawFunds(bool condition, uint amount) private {\n        require(condition);\n\n        msg.sender.transfer(amount);\n    }\n\n    function withdrawFundsAfterOneBet(address _lotteryId) public isValidState(_lotteryId, State.WITHDRAWING_FUNDS_AFTER_ONE_BET) {\n        LotteryData storage lottery = lotteries[_lotteryId];\n\n        withdrawFunds(\n            getValidUser(lottery).hasPlacedBet,\n            lottery.betAmount\n        );\n    }\n\n    function withdrawFundsAfterOneReveal(address _lotteryId) public isValidState(_lotteryId, State.WITHDRAWING_FUNDS_AFTER_ONE_REVEAL) {\n        LotteryData storage lottery = lotteries[_lotteryId];\n\n        withdrawFunds(\n            getValidUser(lottery).hasRevealedBet,\n            lottery.betAmount\n        );\n    }\n}\n",
  "sourcePath": "/media/kacper/Programowanie/Projekty/EtherLottery/contracts/Lottery.sol",
  "compiler": {
    "name": "solc",
    "version": "0.4.18+commit.9cf6e910.Emscripten.clang"
  },
  "schemaVersion": "1.0.1",
  "updatedAt": "2018-02-01T20:10:38.951Z"
}